:100000000C9453000C94AC030C9485030C947B006B
:100010000C947B000C947B000C947B000C947B0074
:100020000C947B000C947B000C947B000C947B0064
:100030000C947B000C947B000C947B000C947B0054
:100040000C943B030C947B000C9409030C94E30286
:100050000C947B000C947B000C947B000C947B0034
:100060000C947B000C947B0000000000250028000D
:100070002B0000000000240027002A0004040404D0
:100080000404040402020202020203030303030342
:10009000010204081020408001020408102001021F
:1000A00004081020D30311241FBECFEFD8E0DEBF19
:1000B000CDBF22E0ACE3B1E001C01D92A737B2078B
:1000C000E1F711E0A0E0B1E0E8EBFCE002C0059050
:1000D0000D92AC33B107D9F710E0C3E5D0E004C00E
:1000E0002197FE010E944F06C235D107C9F70E9431
:1000F00012040C945A060C940000E4E9F1E0A08983
:10010000B18982E08C93A485B5851C92A685B785BC
:1001100083E38C93108EA489B58986E08C93A289A1
:10012000B3898C9180618C93A289B3898C9188600A
:100130008C93A289B3898C9180688C930288F3890F
:10014000E02D80818F7D80830895CF92DF92EF92A2
:10015000FF920F931F93CF93DF936C017A018B0172
:10016000C0E0D0E0CE15DF0581F0D8016D918D01A2
:10017000D601ED91FC910190F081E02DC601099529
:10018000892B11F02196EECF7E01C701DF91CF912F
:100190001F910F91FF90EF90DF90CF9008950895F9
:1001A00080E090E00895FC01538D448D252F30E0D0
:1001B000842F90E0821B930B541710F0CF96089574
:1001C00001970895FC01918D828D981761F0828DC1
:1001D000DF01A80FB11D5D968C91928D9F5F9F737B
:1001E000928F90E008958FEF9FEF0895FC01918D1D
:1001F000828D981731F0828DE80FF11D858D90E08A
:1002000008958FEF9FEF0895FC01918D228D892F26
:1002100090E0805C9F4F821B91098F73992708950E
:1002200084E991E00E94040121E0892B09F420E097
:10023000822F0895FC01848DDF01A80FB11DA35A00
:10024000BF4F2C91848D90E001968F739927848FF6
:10025000A689B7892C93A089B1898C918370806419
:100260008C93938D848D981306C00288F389E02DBA
:1002700080818F7D80830895EF92FF920F931F936B
:10028000CF93DF93EC0181E0888F9B8D8C8D981349
:1002900005C0E889F989808185FD26C0F62E0B8D81
:1002A00010E00F5F1F4F0F731127E02E8C8DE812A7
:1002B0000CC00FB607FCFACFE889F989808185FF69
:1002C000F5CFCE010E941A01F1CF8B8DFE01E80F10
:1002D000F11DE35AFF4FF0829FB7F8940B8FEA8924
:1002E000FB89808180620AC09FB7F894EE89FF89FC
:1002F0006083E889F98980818370806480839FBFEF
:1003000081E090E0DF91CF911F910F91FF90EF90EE
:100310000895CF93DF93EC01888D8823C9F0EA8993
:10032000FB89808185FD05C0A889B9898C9186FDEE
:100330000FC00FB607FCF5CF808185FFF2CFA889EB
:10034000B9898C9185FFEDCFCE010E941A01E7CFCC
:10035000DF91CF91089580E090E0892B29F00E94F1
:10036000100181110C94000008953FB7F89480911A
:10037000460190914701A0914801B091490126B5ED
:10038000A89B05C02F3F19F00196A11DB11D3FBFCD
:10039000BA2FA92F982F8827820F911DA11DB11D5B
:1003A000BC01CD0142E0660F771F881F991F4A9557
:1003B000D1F708958F929F92AF92BF92CF92DF9222
:1003C000EF92FF926B017C010E94B5014B015C0131
:1003D000C114D104E104F104F1F00E94B501DC0183
:1003E000CB0188199909AA09BB09883E9340A10548
:1003F000B10570F321E0C21AD108E108F10888EED6
:10040000880E83E0981EA11CB11CC114D104E10424
:10041000F10419F7DDCFFF90EF90DF90CF90BF9000
:10042000AF909F908F9008952FB7F89460914201FC
:100430007091430180914401909145012FBF08952F
:100440000895CF93DF93CDB7DEB761970FB6F894D9
:10045000DEBF0FBECDBFE091400181E08E0F8093E3
:10046000400184E0E802F0011124E65BFE4F808148
:100470009181A281B3818E879F87A88BB98B8F854D
:100480008150853010F025E001C028E04E85309184
:100490003F0191E0431301C090E0853018F4FE0164
:1004A0003F9602C0ECE3F1E0431303C0AFE3B1E0D9
:1004B00002C0DE011E968AEA89832A839B8381E03B
:1004C0008C8382E18D8384E38E8386E58F8389E745
:1004D00088878081898782818A8781818B878C91B7
:1004E0008C878BED8D874DE050E0BE016F5F7F4FB5
:1004F00084E991E00E94A5008091400165E00E949E
:1005000035069093400161960FB6F894DEBF0FBE9A
:10051000CDBFDF91CF9108950C942102009769F02F
:10052000FC0101900020E9F73197AF01481B590BFE
:10053000BC0184E991E00C94A50080E090E008956E
:100540008F929F92AF92BF920F931F93CF93DF939F
:10055000CDB7DEB7A1970FB6F894DEBF0FBECDBF03
:1005600019A2423008F44AE08E010F5D1F4F842E1D
:10057000912CA12CB12CA50194010E941306E62F09
:10058000B901CA0101501109EA3014F4E05D01C05B
:10059000E95CD801EC93232B242B252B61F7C801B0
:1005A0000E948E02A1960FB6F894DEBF0FBECDBF9B
:1005B000DF91CF911F910F91BF90AF909F908F903F
:1005C00008950E9455061F920F920FB60F921124A4
:1005D0002F933F934F935F936F937F938F939F934B
:1005E000AF93BF93EF93FF9384E991E00E941A01C8
:1005F000FF91EF91BF91AF919F918F917F916F91FB
:100600005F914F913F912F910F900FBE0F901F90D0
:1006100018951F920F920FB60F9211242F938F935C
:100620009F93EF93FF93E091A401F091A501808146
:10063000E091AA01F091AB0182FD12C090818091FE
:10064000AD018F5F8F732091AE01821751F0E09161
:10065000AD01F0E0EC56FE4F958F8093AD0101C0E7
:100660008081FF91EF919F918F912F910F900FBEFD
:100670000F901F9018951F920F920FB60F92112492
:100680002F933F938F939F93AF93BF93809142019A
:1006900090914301A0914401B091450130914101F5
:1006A00023E0230F2D3720F40196A11DB11D05C0B5
:1006B00026E8230F0296A11DB11D209341018093CE
:1006C000420190934301A0934401B093450180916E
:1006D000460190914701A0914801B09149010196CE
:1006E000A11DB11D8093460190934701A09348013D
:1006F000B0934901BF91AF919F918F913F912F91FD
:100700000F900FBE0F901F9018951F920F920FB66B
:100710000F9211242F933F934F935F936F937F9387
:100720008F939F93AF93BF93EF93FF93E091020159
:10073000F09103010995FF91EF91BF91AF919F91C6
:100740008F917F916F915F914F913F912F910F907A
:100750000FBE0F901F9018951F920F920FB60F9219
:1007600011242F933F934F935F936F937F938F93B6
:100770009F93AF93BF93EF93FF93E0910001F091AC
:1007800001010995FF91EF91BF91AF919F918F91D9
:100790007F916F915F914F913F912F910F900FBE7D
:1007A0000F901F901895E4E9F1E01382128288EE11
:1007B00093E0A0E0B0E084839583A683B78388E0CC
:1007C00091E09183808385EC90E09587848784EC29
:1007D00090E09787868780EC90E0918B808B81EC0E
:1007E00090E0938B828B82EC90E0958B848B86ECEF
:1007F00090E0978B868B118E128E138E148EE1E310
:10080000F2E01682178210861186128613861486ED
:10081000158616861786108A118A128A138A148AF8
:10082000158A0895789484B5826084BD84B581600A
:1008300084BD85B5826085BD85B5816085BD8091AB
:100840006E00816080936E00109281008091810023
:10085000826080938100809181008160809381001B
:10086000809180008160809380008091B1008460DD
:100870008093B1008091B00081608093B00080913E
:100880007A00846080937A0080917A0082608093FD
:100890007A0080917A00816080937A0080917A005A
:1008A000806880937A001092C100109273021092B7
:1008B0007402109275021092760210923302109216
:1008C000340210923502109236020E9414026B011B
:1008D0007C014B015C0128EB820E2BE0921EA11CD7
:1008E000B11C0E9414026C157D058E059F0528F031
:1008F00086169706A806B906A0F760ED77E080E0B7
:1009000090E00E94DA010E947D000E941402609330
:10091000330270933402809335029093360286E15D
:1009200091E00E948E020E9414026B017C014B0137
:100930005C013AE0830E911CA11CB11C0E941402C0
:100940006C157D058E059F0528F086169706A8066E
:10095000B906A0F781E08093470282E3E2E6F1E086
:10096000DF011D928A95E9F781E880934A0123E02F
:1009700020934B0182E190E090934D0180934C01D4
:1009800082E880934E0192E090934F0144E350E05F
:1009900050935101409350012093530126E530E0DC
:1009A00030935501209354019093570128E730E08C
:1009B000309359012093580180935A01E2E9F0E005
:1009C0002491EEE7F0E084918823C1F090E0880F55
:1009D000991FFC01EE58FF4FC591D491FC01E859D5
:1009E000FF4FA591B4919FB7F8948881322F30952D
:1009F00083238883EC91E22BEC939FBF8CE892E0F9
:100A00009093010180930001809169008C7F816047
:100A100080936900E89A0E947D000E941402672B6F
:100A2000682B692B41F40E94140262307105810524
:100A3000910508F4E7C00E941402C0905E01D090B6
:100A40005F01E0906001F09061016C157D058E05FD
:100A50009F0540F460935E0170935F018093600195
:100A600090936101C0905E01D0905F01E0906001C1
:100A7000F09061019B01AC012C193D094E095F0901
:100A800069017A013AEFC316D104E104F10408F4D4
:100A9000B9C060935E0170935F0180936001909391
:100AA000610184EF91E0A0E0B0E080933F02909379
:100AB0004002A0934102B09342021092430210926E
:100AC00044021092450210924602809137029091A2
:100AD0003802A0913902B0913A0280933B02909380
:100AE0003C02A0933D02B0933E020E941402609328
:100AF0003702709338028093390290933A020E9431
:100B00001402609333027093340280933502909301
:100B100036020E9414026B017C0188E291E00E947F
:100B20008E024AE061E070E080E090E00E94A00266
:100B30008FE291E00E948E024AE0C701B6010E9456
:100B4000A00281E391E00E948E0280913702909191
:100B50003802A0913902B0913A02A7019601281BF0
:100B6000390B4A0B5B0BCA01B9014AE00E94A00293
:100B700081E391E00E948E028091370290913802C9
:100B8000A0913902B0913A02C0903B02D0903C0251
:100B9000E0903D02F0903E02BC01CD016C197D0950
:100BA0008E099F094AE00E94A00283E391E00E941F
:100BB0008E020E9414024AE00E94A00285E391E0A6
:100BC0000E948E0285E291E00E948E020E94140231
:100BD0006B017C014B015C0135E0830E911CA11C73
:100BE000B11C0E9414026C157D058E059F05A8F4AA
:100BF0000E94140260933702709338028093390286
:100C000090933A020E94210268E873E180E090E04C
:100C10000E94DA010E94AB01F5CF86169706A8065E
:100C2000B906F8F6E5CFA1E21A2EAA1BBB1BFD01FF
:100C30000DC0AA1FBB1FEE1FFF1FA217B307E407BB
:100C4000F50720F0A21BB30BE40BF50B661F771F13
:100C5000881F991F1A9469F76095709580959095F3
:100C60009B01AC01BD01CF01089587FB082E06262C
:100C700087FD819567FD61950E9443060EF491956D
:100C800007FC81950895991B79E004C0991F961778
:100C900008F0961B881F7A95C9F780950895EE0F86
:100CA000FF1F0590F491E02D099481E090E0F89405
:080CB0000C945A06F894FFCFE2
:100CB80020022002000000003C01A500D3008901A9
:100CC8000401E200F600564D4450565F317C315F16
:100CD800564D4450560D0A00564D4450455F003A53
:0C0CE800323A007C005F564D445045003D
:00000001FF
