:100000000C9453000C9424030C94FD020C947B007C
:100010000C947B000C947B000C947B000C947B0074
:100020000C947B000C947B000C947B000C947B0064
:100030000C947B000C947B000C947B000C947B0054
:100040000C94B3020C947B000C9481020C945B0220
:100050000C947B000C947B000C947B000C947B0034
:100060000C947B000C947B0000000000250028000D
:100070002B0000000000240027002A0004040404D0
:100080000404040402020202020203030303030342
:10009000010204081020408001020408102001021F
:1000A00004081020E20411241FBECFEFD8E0DEBF09
:1000B000CDBF22E0A6E1B1E001C01D92A730B2079A
:1000C000E1F711E0A0E0B1E0E4E9FAE002C0059058
:1000D0000D92A631B107D9F710E0C3E5D0E004C016
:1000E0002197FE010E943D05C235D107C9F70E9444
:1000F0004B030C9448050C940000CF92DF92EF92D2
:10010000FF920F931F93CF93DF936C017A018B01C2
:10011000C0E0D0E0CE15DF0581F0D8016D918D01F2
:10012000D601ED91FC910190F081E02DC601099579
:10013000892B11F02196EECF7E01C701DF91CF917F
:100140001F910F91FF90EF90DF90CF900895089549
:1001500080E090E00895FC01538D448D252F30E020
:10016000842F90E0821B930B541710F0CF960895C4
:1001700001970895FC01918D828D981761F0828D11
:10018000DF01A80FB11D5D968C91928D9F5F9F73CB
:10019000928F90E008958FEF9FEF0895FC01918D6D
:1001A000828D981731F0828DE80FF11D858D90E0DA
:1001B00008958FEF9FEF0895FC01918D228D892F77
:1001C00090E0805C9F4F821B91098F73992708955F
:1001D0008AE691E00E94DC0021E0892B09F420E00E
:1001E000822F0895FC01848DDF01A80FB11DA35A51
:1001F000BF4F2C91848D90E001968F739927848F47
:10020000A689B7892C93A089B1898C918370806469
:100210008C93938D848D981306C00288F389E02D0A
:1002200080818F7D80830895EF92FF920F931F93BB
:10023000CF93DF93EC0181E0888F9B8D8C8D981399
:1002400005C0E889F989808185FD26C0F62E0B8DD1
:1002500010E00F5F1F4F0F731127E02E8C8DE812F7
:100260000CC00FB607FCFACFE889F989808185FFB9
:10027000F5CFCE010E94F200F1CF8B8DFE01E80F89
:10028000F11DE35AFF4FF0829FB7F8940B8FEA8974
:10029000FB89808180620AC09FB7F894EE89FF894C
:1002A0006083E889F98980818370806480839FBF3F
:1002B00081E090E0DF91CF911F910F91FF90EF903F
:1002C0000895CF93DF93EC01888D8823C9F0EA89E4
:1002D000FB89808185FD05C0A889B9898C9186FD3F
:1002E0000FC00FB607FCF5CF808185FFF2CFA8893C
:1002F000B9898C9185FFEDCFCE010E94F200E7CF46
:10030000DF91CF91089580E090E0892B29F00E9441
:10031000E80081110C94000008953FB7F894809193
:100320001C0190911D01A0911E01B0911F0126B5E5
:10033000A89B05C02F3F19F00196A11DB11D3FBF1D
:10034000BA2FA92F982F8827820F911DA11DB11DAB
:10035000BC01CD0142E0660F771F881F991F4A95A7
:10036000D1F708958F929F92AF92BF92CF92DF9272
:10037000EF92FF920E948D014B015C0184EFC82E29
:10038000DD24D394E12CF12C0E948D01DC01CB0102
:1003900088199909AA09BB09883E9340A105B105AE
:1003A00098F321E0C21AD108E108F10888EE880E1E
:1003B00083E0981EA11CB11CC114D104E104F10416
:1003C00019F7FF90EF90DF90CF90BF90AF909F9084
:1003D0008F9008950895CF93DF93CDB7DEB76197DF
:1003E0000FB6F894DEBF0FBECDBF6E877F87888BB8
:1003F000998B8F858150853010F025E001C028E071
:100400004E8530911A0191E0431301C090E0853090
:1004100018F4FE013F9602C0E7E1F1E0431303C088
:10042000AAE1B1E002C0DE011E968AEA89832A832E
:100430009B8381E08C8382E18D8384E38E8386E5D8
:100440008F8389E788878081898782818A878181F4
:100450008B878C918C878BED8D874DE050E0BE01B2
:100460006F5F7F4F8AE691E00E947D0061960FB634
:10047000F894DEBF0FBECDBFDF91CF910895E0911C
:10048000160181E08E0F8093160184E0E802F001EE
:100490001124E05EFE4F60817181828193810E9410
:1004A000EB018091160165E00E940F059093160103
:1004B00008950E9443051F920F920FB60F921124C8
:1004C0002F933F934F935F936F937F938F939F935C
:1004D000AF93BF93EF93FF938AE691E00E94F200FF
:1004E000FF91EF91BF91AF919F918F917F916F910C
:1004F0005F914F913F912F910F900FBE0F901F90E2
:1005000018951F920F920FB60F9211242F938F936D
:100510009F93EF93FF93E0917A01F0917B018081AB
:10052000E0918001F091810182FD12C09081809163
:1005300083018F5F8F7320918401821751F0E091C6
:100540008301F0E0E659FE4F958F8093830101C04F
:100550008081FF91EF919F918F912F910F900FBE0E
:100560000F901F9018951F920F920FB60F921124A3
:100570002F933F938F939F93AF93BF9380913401B9
:1005800090913501A0913601B091370130911B0156
:1005900023E0230F2D3720F40196A11DB11D05C0C6
:1005A00026E8230F0296A11DB11D20931B01809305
:1005B000340190933501A0933601B09337018091B7
:1005C0001C0190911D01A0911E01B0911F01019687
:1005D000A11DB11D80931C0190931D01A0931E01CC
:1005E000B0931F01BF91AF919F918F913F912F9138
:1005F0000F900FBE0F901F9018951F920F920FB67D
:100600000F9211242F933F934F935F936F937F9398
:100610008F939F93AF93BF93EF93FF93E09102016A
:10062000F09103010995FF91EF91BF91AF919F91D7
:100630008F917F916F915F914F913F912F910F908B
:100640000FBE0F901F9018951F920F920FB60F922A
:1006500011242F933F934F935F936F937F938F93C7
:100660009F93AF93BF93EF93FF93E0910001F091BD
:1006700001010995FF91EF91BF91AF919F918F91EA
:100680007F916F915F914F913F912F910F900FBE8E
:100690000F901F901895789484B5826084BD84B5BE
:1006A000816084BD85B5826085BD85B5816085BD6D
:1006B00080916E00816080936E0010928100809125
:1006C00081008260809381008091810081608093AD
:1006D0008100809180008160809380008091B100D2
:1006E00084608093B1008091B00081608093B000FD
:1006F00080917A00846080937A0080917A00826091
:1007000080937A0080917A00816080937A00809152
:100710007A00806880937A001092C10082E3E8E357
:10072000F1E0DF011D928A95E9F781E880932001CD
:1007300023E02093210182E190E0909323018093B4
:10074000220182E88093240192E09093250144E302
:1007500050E050932701409326012093290126E57C
:1007600030E030932B0120932A0190932D0128E74C
:1007700030E030932F0120932E0180933001E2E985
:10078000F0E02491EEE7F0E084918823C1F090E05E
:10079000880F991FFC01EE58FF4FC591D491FC01C1
:1007A000E859FF4FA591B4919FB7F8948881322FF3
:1007B000309583238883EC91E22BEC939FBF8FE3EA
:1007C00092E09093010180930001809169008C7FF9
:1007D000816080936900E89AE0917A01F0917B0151
:1007E00082E08083E0917601F09177011082E091C0
:1007F0007801F091790183E3808310928201E09186
:100800007E01F0917F0186E08083E0917C01F09190
:100810007D01808180618083E0917C01F0917D0188
:10082000808188608083E0917C01F0917D018081EE
:1008300080688083E0917C01F0917D0180818F7DD3
:10084000808383E0882E912C98E3C92E91E0D92EE5
:1008500022E3622E8AE691E00E94DC00892B09F4F3
:10086000A7C008E311E0E8012FB7F89480913401A4
:1008700090913501A0913601B09137012FBF80933F
:10088000720190937301A0937401B09375018AE68D
:1008900091E00E94BA0097FF8EC02FB7F894809124
:1008A000340190913501A0913601B09137012FBFED
:1008B00040917201509173016091740170917501C2
:1008C000841B950BA60BB70B40916E0150916F01E5
:1008D000609170017091710184179507A607B707A1
:1008E000B0F270903A01C0913901C550D0E0CE010C
:1008F000B4010E941D055B01E12CF12CEA14FB04FC
:10090000BCF5F8018085833001F150F4823041F567
:100910002185328532272327322760E072E01DC00F
:10092000843059F08530E1F4F80121853285322791
:100930002327322760E075E010C0218532853227F9
:100940002327322760E074E008C0F8012185328552
:1009500032272327322760E073E0C9010E94EB01B0
:100960000E94B201FFEFEF1AFF0A0D5F1F4FC6CFC3
:10097000C05CDE4F00E010E0E72CF12C0E151F05E7
:1009800094F48991813821F0823841F462E801C001
:1009900061E870E080E090E00E94EB010E94B2010B
:1009A0000F5F1F4FEBCFD601E62D1D92EA95E9F7B9
:1009B0000E9483014FCF8993F1E0CA36DF0709F027
:1009C00053CF8FCFEAE6F1E01382128288EE93E0F4
:1009D000A0E0B0E084839583A683B78388E091E0AC
:1009E0009183808385EC90E09587848784EC90E008
:1009F0009787868780EC90E0918B808B81EC90E0EC
:100A0000938B828B82EC90E0958B848B86EC90E0CC
:100A1000978B868B118E128E138E148E089587FB02
:100A2000082E062687FD819567FD61950E94310598
:100A30000EF4919507FC81950895AA1BBB1B51E10B
:100A400007C0AA1FBB1FA617B70710F0A61BB70B3E
:100A5000881F991F5A95A9F780959095BC01CD01E3
:100A60000895991B79E004C0991F961708F0961B0A
:100A7000881F7A95C9F780950895EE0FFF1F05909E
:100A8000F491E02D099481E090E0F8940C944805ED
:040A9000F894FFCF08
:100A9400EA01EA010000000014017D00AB006101DD
:060AA400DC00BA00CE00E8
:00000001FF
